{
  "transactions": [
    {
      "hash": "0x27f2b3f2493af2cbfa1c3af4ce476d7b38abc458448d0544cf4ae21654657d4c",
      "transactionType": "CALL",
      "contractName": "EntryPoint",
      "contractAddress": "0x4337084d9e255ff0702461cf8895ce9e3b5ff108",
      "function": "handleOps((address,uint256,bytes,bytes,bytes32,uint256,bytes32,bytes,bytes)[],address)",
      "arguments": [
        "[(0xB484dDECe35793E5a500565c4C0E7aaa0703a663, 0, 0x, 0xb61d27f60000000000000000000000001c7d4b196cb0c7b01d743fbc6116a902379c7238000000000000000000000000000000000000000000000000000000000000000000000000000000000000000000000000000000000000000000000000000000600000000000000000000000000000000000000000000000000000000000000044095ea7b30000000000000000000000000178157cdfe53ce7ee4c937928e6746ab68952b80000000000000000000000000000000000000000000000000de0b6b3a764000000000000000000000000000000000000000000000000000000000000, 0x0000000000000000000000000100000000000000000000000000000001000000, 16777216, 0x0000000000000000000000000000010000000000000000000000000000000100, 0x, 0xd42ef698576e9e2dd54c2180cc4d3bdd2dad491a81b8883844f42af6fb7745405bbdb82802336158bcf6a02dee740460283f0e405e170935055de0d8558d675a1c)]",
        "0xf52205F70531e62f7199D3f3835FDdCd86791294"
      ],
      "transaction": {
        "from": "0xf52205f70531e62f7199d3f3835fddcd86791294",
        "to": "0x4337084d9e255ff0702461cf8895ce9e3b5ff108",
        "gas": "0x32e33",
        "value": "0x0",
        "input": "0x765e827f0000000000000000000000000000000000000000000000000000000000000040000000000000000000000000f52205f70531e62f7199d3f3835fddcd8679129400000000000000000000000000000000000000000000000000000000000000010000000000000000000000000000000000000000000000000000000000000020000000000000000000000000b484ddece35793e5a500565c4c0e7aaa0703a66300000000000000000000000000000000000000000000000000000000000000000000000000000000000000000000000000000000000000000000000000000120000000000000000000000000000000000000000000000000000000000000014000000000000000000000000001000000000000000000000000000000010000000000000000000000000000000000000000000000000000000000000001000000000000000000000000000000000001000000000000000000000000000000010000000000000000000000000000000000000000000000000000000000000002600000000000000000000000000000000000000000000000000000000000000280000000000000000000000000000000000000000000000000000000000000000000000000000000000000000000000000000000000000000000000000000000e4b61d27f60000000000000000000000001c7d4b196cb0c7b01d743fbc6116a902379c7238000000000000000000000000000000000000000000000000000000000000000000000000000000000000000000000000000000000000000000000000000000600000000000000000000000000000000000000000000000000000000000000044095ea7b30000000000000000000000000178157cdfe53ce7ee4c937928e6746ab68952b80000000000000000000000000000000000000000000000000de0b6b3a7640000000000000000000000000000000000000000000000000000000000000000000000000000000000000000000000000000000000000000000000000000000000000000000000000000000000000000000000000000000000000000000000000000000000000000000000000000000000000000000000000041d42ef698576e9e2dd54c2180cc4d3bdd2dad491a81b8883844f42af6fb7745405bbdb82802336158bcf6a02dee740460283f0e405e170935055de0d8558d675a1c00000000000000000000000000000000000000000000000000000000000000",
        "nonce": "0xfd",
        "chainId": "0xaa36a7"
      },
      "additionalContracts": [],
      "isFixedGasLimit": false
    }
  ],
  "receipts": [],
  "libraries": [],
  "pending": [],
  "returns": {},
  "timestamp": 1751756882,
  "chain": 11155111,
  "commit": "b6c3fc3"
}