{
  "transactions": [
    {
      "hash": "0xc6b56f793152ef07ae7c6344fdb94e750af10a9cac64b23d90489fa5889953f3",
      "transactionType": "CALL",
      "contractName": "EntryPoint",
      "contractAddress": "0x4337084d9e255ff0702461cf8895ce9e3b5ff108",
      "function": "handleOps((address,uint256,bytes,bytes,bytes32,uint256,bytes32,bytes,bytes)[],address)",
      "arguments": [
        "[(0xB484dDECe35793E5a500565c4C0E7aaa0703a663, 0, 0x, 0xb61d27f60000000000000000000000001c7d4b196cb0c7b01d743fbc6116a902379c7238000000000000000000000000000000000000000000000000000000000000000000000000000000000000000000000000000000000000000000000000000000600000000000000000000000000000000000000000000000000000000000000044a9059cbb0000000000000000000000000178157cdfe53ce7ee4c937928e6746ab68952b80000000000000000000000000000000000000000000000000de0b6b3a764000000000000000000000000000000000000000000000000000000000000, 0x00000000000000000000000001d59f8000000000000000000000000001d59f80, 30777216, 0x000000000000000000000000000004e8000000000000000000000000000004e8, 0x, 0xf45a212e3ffcccf00952fdb8b62cce756aba438ec01c0f4d78d1aa81d23985734d49d1a016ce4769f4ac3b43fc9d30ba29106cfe254c95430a6e50a4049537b61b)]",
        "0xB69F973d1E94B1aeA5Bf8c6fEFF13876C0155605"
      ],
      "transaction": {
        "from": "0xf52205f70531e62f7199d3f3835fddcd86791294",
        "to": "0x4337084d9e255ff0702461cf8895ce9e3b5ff108",
        "gas": "0x31d86",
        "value": "0x0",
        "input": "0x765e827f0000000000000000000000000000000000000000000000000000000000000040000000000000000000000000b69f973d1e94b1aea5bf8c6feff13876c015560500000000000000000000000000000000000000000000000000000000000000010000000000000000000000000000000000000000000000000000000000000020000000000000000000000000b484ddece35793e5a500565c4c0e7aaa0703a66300000000000000000000000000000000000000000000000000000000000000000000000000000000000000000000000000000000000000000000000000000120000000000000000000000000000000000000000000000000000000000000014000000000000000000000000001d59f8000000000000000000000000001d59f800000000000000000000000000000000000000000000000000000000001d59f80000000000000000000000000000004e8000000000000000000000000000004e800000000000000000000000000000000000000000000000000000000000002600000000000000000000000000000000000000000000000000000000000000280000000000000000000000000000000000000000000000000000000000000000000000000000000000000000000000000000000000000000000000000000000e4b61d27f60000000000000000000000001c7d4b196cb0c7b01d743fbc6116a902379c7238000000000000000000000000000000000000000000000000000000000000000000000000000000000000000000000000000000000000000000000000000000600000000000000000000000000000000000000000000000000000000000000044a9059cbb0000000000000000000000000178157cdfe53ce7ee4c937928e6746ab68952b80000000000000000000000000000000000000000000000000de0b6b3a7640000000000000000000000000000000000000000000000000000000000000000000000000000000000000000000000000000000000000000000000000000000000000000000000000000000000000000000000000000000000000000000000000000000000000000000000000000000000000000000000000041f45a212e3ffcccf00952fdb8b62cce756aba438ec01c0f4d78d1aa81d23985734d49d1a016ce4769f4ac3b43fc9d30ba29106cfe254c95430a6e50a4049537b61b00000000000000000000000000000000000000000000000000000000000000",
        "nonce": "0x106",
        "chainId": "0xaa36a7"
      },
      "additionalContracts": [],
      "isFixedGasLimit": false
    }
  ],
  "receipts": [],
  "libraries": [],
  "pending": [],
  "returns": {},
  "timestamp": 1751759486,
  "chain": 11155111,
  "commit": "b6c3fc3"
}