{
  "transactions": [
    {
      "hash": "0x30e800ddfab35eb054d96a4ae61b6a856ce63e01a07ad0bbf90dc38aa24f1e5f",
      "transactionType": "CALL",
      "contractName": "EntryPoint",
      "contractAddress": "0x4337084d9e255ff0702461cf8895ce9e3b5ff108",
      "function": "handleOps((address,uint256,bytes,bytes,bytes32,uint256,bytes32,bytes,bytes)[],address)",
      "arguments": [
        "[(0xB484dDECe35793E5a500565c4C0E7aaa0703a663, 0, 0x, 0xb61d27f60000000000000000000000001c7d4b196cb0c7b01d743fbc6116a902379c7238000000000000000000000000000000000000000000000000000000000000000000000000000000000000000000000000000000000000000000000000000000600000000000000000000000000000000000000000000000000000000000000044095ea7b30000000000000000000000000178157cdfe53ce7ee4c937928e6746ab68952b80000000000000000000000000000000000000000000000000de0b6b3a764000000000000000000000000000000000000000000000000000000000000, 0x0000000000000000000000000007a1200000000000000000000000000007a120, 500000, 0x0000000000000000000000000000010000000000000000000000000000000100, 0x, 0x1bd5c8a14965e711dea8db9c7983b66eeb6decf99cceb9ed7427b5637ba179d05e8d82eba26d3e987d62cb8451589cba3873964439fce43f943760f2d6346e1f1c)]",
        "0xf52205F70531e62f7199D3f3835FDdCd86791294"
      ],
      "transaction": {
        "from": "0xf52205f70531e62f7199d3f3835fddcd86791294",
        "to": "0x4337084d9e255ff0702461cf8895ce9e3b5ff108",
        "gas": "0x32e97",
        "value": "0x0",
        "input": "0x765e827f0000000000000000000000000000000000000000000000000000000000000040000000000000000000000000f52205f70531e62f7199d3f3835fddcd8679129400000000000000000000000000000000000000000000000000000000000000010000000000000000000000000000000000000000000000000000000000000020000000000000000000000000b484ddece35793e5a500565c4c0e7aaa0703a6630000000000000000000000000000000000000000000000000000000000000000000000000000000000000000000000000000000000000000000000000000012000000000000000000000000000000000000000000000000000000000000001400000000000000000000000000007a1200000000000000000000000000007a120000000000000000000000000000000000000000000000000000000000007a120000000000000000000000000000001000000000000000000000000000000010000000000000000000000000000000000000000000000000000000000000002600000000000000000000000000000000000000000000000000000000000000280000000000000000000000000000000000000000000000000000000000000000000000000000000000000000000000000000000000000000000000000000000e4b61d27f60000000000000000000000001c7d4b196cb0c7b01d743fbc6116a902379c7238000000000000000000000000000000000000000000000000000000000000000000000000000000000000000000000000000000000000000000000000000000600000000000000000000000000000000000000000000000000000000000000044095ea7b30000000000000000000000000178157cdfe53ce7ee4c937928e6746ab68952b80000000000000000000000000000000000000000000000000de0b6b3a76400000000000000000000000000000000000000000000000000000000000000000000000000000000000000000000000000000000000000000000000000000000000000000000000000000000000000000000000000000000000000000000000000000000000000000000000000000000000000000000000000411bd5c8a14965e711dea8db9c7983b66eeb6decf99cceb9ed7427b5637ba179d05e8d82eba26d3e987d62cb8451589cba3873964439fce43f943760f2d6346e1f1c00000000000000000000000000000000000000000000000000000000000000",
        "nonce": "0xfe",
        "chainId": "0xaa36a7"
      },
      "additionalContracts": [],
      "isFixedGasLimit": false
    }
  ],
  "receipts": [],
  "libraries": [],
  "pending": [],
  "returns": {},
  "timestamp": 1751756978,
  "chain": 11155111,
  "commit": "b6c3fc3"
}