{
  "transactions": [
    {
      "hash": "0xeec04edf8b2dca36df082166cfa2c4fd80f1525ce389f6849ce75358fb266c45",
      "transactionType": "CALL",
      "contractName": "EntryPoint",
      "contractAddress": "0x4337084d9e255ff0702461cf8895ce9e3b5ff108",
      "function": "handleOps((address,uint256,bytes,bytes,bytes32,uint256,bytes32,bytes,bytes)[],address)",
      "arguments": [
        "[(0xB484dDECe35793E5a500565c4C0E7aaa0703a663, 0, 0x, 0xb61d27f60000000000000000000000001c7d4b196cb0c7b01d743fbc6116a902379c7238000000000000000000000000000000000000000000000000000000000000000000000000000000000000000000000000000000000000000000000000000000600000000000000000000000000000000000000000000000000000000000000044a9059cbb0000000000000000000000000178157cdfe53ce7ee4c937928e6746ab68952b80000000000000000000000000000000000000000000000000de0b6b3a764000000000000000000000000000000000000000000000000000000000000, 0x000000000000000000000000000493e0000000000000000000000000000f4240, 300000, 0x0000000000000000000000000000010000000000000000000000000000000100, 0x, 0x35daf2dee20e485acd90a8aa0356e81106653389c94deb21bfaea4d7d9eb787c5a2ee9a2916bc2606c5c85489b0c156c7cde19047dec00a9780470873ce37ef31b)]",
        "0xB69F973d1E94B1aeA5Bf8c6fEFF13876C0155605"
      ],
      "transaction": {
        "from": "0xf52205f70531e62f7199d3f3835fddcd86791294",
        "to": "0x4337084d9e255ff0702461cf8895ce9e3b5ff108",
        "gas": "0x31d1d",
        "value": "0x0",
        "input": "0x765e827f0000000000000000000000000000000000000000000000000000000000000040000000000000000000000000b69f973d1e94b1aea5bf8c6feff13876c015560500000000000000000000000000000000000000000000000000000000000000010000000000000000000000000000000000000000000000000000000000000020000000000000000000000000b484ddece35793e5a500565c4c0e7aaa0703a663000000000000000000000000000000000000000000000000000000000000000000000000000000000000000000000000000000000000000000000000000001200000000000000000000000000000000000000000000000000000000000000140000000000000000000000000000493e0000000000000000000000000000f424000000000000000000000000000000000000000000000000000000000000493e0000000000000000000000000000001000000000000000000000000000000010000000000000000000000000000000000000000000000000000000000000002600000000000000000000000000000000000000000000000000000000000000280000000000000000000000000000000000000000000000000000000000000000000000000000000000000000000000000000000000000000000000000000000e4b61d27f60000000000000000000000001c7d4b196cb0c7b01d743fbc6116a902379c7238000000000000000000000000000000000000000000000000000000000000000000000000000000000000000000000000000000000000000000000000000000600000000000000000000000000000000000000000000000000000000000000044a9059cbb0000000000000000000000000178157cdfe53ce7ee4c937928e6746ab68952b80000000000000000000000000000000000000000000000000de0b6b3a764000000000000000000000000000000000000000000000000000000000000000000000000000000000000000000000000000000000000000000000000000000000000000000000000000000000000000000000000000000000000000000000000000000000000000000000000000000000000000000000000004135daf2dee20e485acd90a8aa0356e81106653389c94deb21bfaea4d7d9eb787c5a2ee9a2916bc2606c5c85489b0c156c7cde19047dec00a9780470873ce37ef31b00000000000000000000000000000000000000000000000000000000000000",
        "nonce": "0x109",
        "chainId": "0xaa36a7"
      },
      "additionalContracts": [],
      "isFixedGasLimit": false
    }
  ],
  "receipts": [],
  "libraries": [],
  "pending": [],
  "returns": {},
  "timestamp": 1751760062,
  "chain": 11155111,
  "commit": "b6c3fc3"
}