{
  "transactions": [
    {
      "hash": "0x4ce278256a6be1ef6e01657d0853072126499042f57592743b3980c4077f04bb",
      "transactionType": "CALL",
      "contractName": null,
      "contractAddress": "0x4337084d9e255ff0702461cf8895ce9e3b5ff108",
      "function": "handleOps((address,uint256,bytes,bytes,bytes32,uint256,bytes32,bytes,bytes)[],address)",
      "arguments": [
        "[(0xB484dDECe35793E5a500565c4C0E7aaa0703a663, 0, 0x, 0xb61d27f60000000000000000000000001c7d4b196cb0c7b01d743fbc6116a902379c7238000000000000000000000000000000000000000000000000000000000000000000000000000000000000000000000000000000000000000000000000000000600000000000000000000000000000000000000000000000000000000000000044095ea7b30000000000000000000000000178157cdfe53ce7ee4c937928e6746ab68952b80000000000000000000000000000000000000000000000000de0b6b3a764000000000000000000000000000000000000000000000000000000000000, 0x000000000000000000000000000f4240000000000000000000000000000f4240, 1000000, 0x0000000000000000000000003b9aca0000000000000000000000000077359400, 0x, 0xc9a418578f3ab1dfe5f6717898ce7bf06eba5f8cb2e209badf54dac8aa377cd908a2bf2dd8ee0b69fedaf69d795d7e17d1315c9fa3ed531ac5cef30db2da2bd71c)]",
        "0xf52205F70531e62f7199D3f3835FDdCd86791294"
      ],
      "transaction": {
        "from": "0xf52205f70531e62f7199d3f3835fddcd86791294",
        "to": "0x4337084d9e255ff0702461cf8895ce9e3b5ff108",
        "gas": "0x32ed9",
        "value": "0x0",
        "input": "0x765e827f0000000000000000000000000000000000000000000000000000000000000040000000000000000000000000f52205f70531e62f7199d3f3835fddcd8679129400000000000000000000000000000000000000000000000000000000000000010000000000000000000000000000000000000000000000000000000000000020000000000000000000000000b484ddece35793e5a500565c4c0e7aaa0703a663000000000000000000000000000000000000000000000000000000000000000000000000000000000000000000000000000000000000000000000000000001200000000000000000000000000000000000000000000000000000000000000140000000000000000000000000000f4240000000000000000000000000000f424000000000000000000000000000000000000000000000000000000000000f42400000000000000000000000003b9aca000000000000000000000000007735940000000000000000000000000000000000000000000000000000000000000002600000000000000000000000000000000000000000000000000000000000000280000000000000000000000000000000000000000000000000000000000000000000000000000000000000000000000000000000000000000000000000000000e4b61d27f60000000000000000000000001c7d4b196cb0c7b01d743fbc6116a902379c7238000000000000000000000000000000000000000000000000000000000000000000000000000000000000000000000000000000000000000000000000000000600000000000000000000000000000000000000000000000000000000000000044095ea7b30000000000000000000000000178157cdfe53ce7ee4c937928e6746ab68952b80000000000000000000000000000000000000000000000000de0b6b3a7640000000000000000000000000000000000000000000000000000000000000000000000000000000000000000000000000000000000000000000000000000000000000000000000000000000000000000000000000000000000000000000000000000000000000000000000000000000000000000000000000041c9a418578f3ab1dfe5f6717898ce7bf06eba5f8cb2e209badf54dac8aa377cd908a2bf2dd8ee0b69fedaf69d795d7e17d1315c9fa3ed531ac5cef30db2da2bd71c00000000000000000000000000000000000000000000000000000000000000",
        "nonce": "0x100",
        "chainId": "0xaa36a7"
      },
      "additionalContracts": [],
      "isFixedGasLimit": false
    }
  ],
  "receipts": [],
  "libraries": [],
  "pending": [],
  "returns": {},
  "timestamp": 1751757302,
  "chain": 11155111,
  "commit": "b6c3fc3"
}