{
  "transactions": [
    {
      "hash": "0xed270e0016df0fe322e1b97cf9acb8caf861502783beb9270f874761e2c684a6",
      "transactionType": "CALL",
      "contractName": "EntryPoint",
      "contractAddress": "0x4337084d9e255ff0702461cf8895ce9e3b5ff108",
      "function": "handleOps((address,uint256,bytes,bytes,bytes32,uint256,bytes32,bytes,bytes)[],address)",
      "arguments": [
        "[(0xdCe0f65638D3860065E68393b25b5f4917773ef1, 8, 0x, 0xb61d27f600000000000000000000000075faf114eafb1bdbe2f0316df893fd58ce46aa4d000000000000000000000000000000000000000000000000000000000000000000000000000000000000000000000000000000000000000000000000000000600000000000000000000000000000000000000000000000000000000000000044a9059cbb0000000000000000000000000178157cdfe53ce7ee4c937928e6746ab68952b800000000000000000000000000000000000000000000000000000000000f424000000000000000000000000000000000000000000000000000000000, 0x000000000000000000000000000249f0000000000000000000000000000186a0, 150000, 0x0000000000000000000000003b9aca0000000000000000000000000077359400, 0x, 0x747742bf8dc71c086e52707f109fd742733b3fada9d488ab5c8aceea7b4839853269319ab6d000f8df063b5c7625e742f9197cbd8523ae031ee8fb5d327bd9ff1c)]",
        "0xf52205F70531e62f7199D3f3835FDdCd86791294"
      ],
      "transaction": {
        "from": "0xf52205f70531e62f7199d3f3835fddcd86791294",
        "to": "0x4337084d9e255ff0702461cf8895ce9e3b5ff108",
        "gas": "0x39ad5",
        "value": "0x0",
        "input": "0x765e827f0000000000000000000000000000000000000000000000000000000000000040000000000000000000000000f52205f70531e62f7199d3f3835fddcd8679129400000000000000000000000000000000000000000000000000000000000000010000000000000000000000000000000000000000000000000000000000000020000000000000000000000000dce0f65638d3860065e68393b25b5f4917773ef1000000000000000000000000000000000000000000000000000000000000000800000000000000000000000000000000000000000000000000000000000001200000000000000000000000000000000000000000000000000000000000000140000000000000000000000000000249f0000000000000000000000000000186a000000000000000000000000000000000000000000000000000000000000249f00000000000000000000000003b9aca000000000000000000000000007735940000000000000000000000000000000000000000000000000000000000000002600000000000000000000000000000000000000000000000000000000000000280000000000000000000000000000000000000000000000000000000000000000000000000000000000000000000000000000000000000000000000000000000e4b61d27f600000000000000000000000075faf114eafb1bdbe2f0316df893fd58ce46aa4d000000000000000000000000000000000000000000000000000000000000000000000000000000000000000000000000000000000000000000000000000000600000000000000000000000000000000000000000000000000000000000000044a9059cbb0000000000000000000000000178157cdfe53ce7ee4c937928e6746ab68952b800000000000000000000000000000000000000000000000000000000000f4240000000000000000000000000000000000000000000000000000000000000000000000000000000000000000000000000000000000000000000000000000000000000000000000000000000000000000000000000000000000000000000000000000000000000000000000000000000000000000000000041747742bf8dc71c086e52707f109fd742733b3fada9d488ab5c8aceea7b4839853269319ab6d000f8df063b5c7625e742f9197cbd8523ae031ee8fb5d327bd9ff1c00000000000000000000000000000000000000000000000000000000000000",
        "nonce": "0x1a",
        "chainId": "0x66eee"
      },
      "additionalContracts": [],
      "isFixedGasLimit": false
    }
  ],
  "receipts": [
    {
      "status": "0x1",
      "cumulativeGasUsed": "0x8d127",
      "logs": [
        {
          "address": "0x4337084d9e255ff0702461cf8895ce9e3b5ff108",
          "topics": [
            "0x2da466a7b24304f47e87fa2e1e5a81b9831ce54fec19055ce277ca2f39ba42c4",
            "0x000000000000000000000000dce0f65638d3860065e68393b25b5f4917773ef1"
          ],
          "data": "0x0000000000000000000000000000000000000000000000000002d79883d20000",
          "blockHash": "0x92f2593242e49973eac3f5d630427d9b5d3c9851011b20e699e108c434d2c62b",
          "blockNumber": "0xa2bde0b",
          "transactionHash": "0xed270e0016df0fe322e1b97cf9acb8caf861502783beb9270f874761e2c684a6",
          "transactionIndex": "0x5",
          "logIndex": "0x13",
          "removed": false
        },
        {
          "address": "0x4337084d9e255ff0702461cf8895ce9e3b5ff108",
          "topics": [
            "0xbb47ee3e183a558b1a2ff0874b079f3fc5478b7454eacf2bfc5af2ff5878f972"
          ],
          "data": "0x",
          "blockHash": "0x92f2593242e49973eac3f5d630427d9b5d3c9851011b20e699e108c434d2c62b",
          "blockNumber": "0xa2bde0b",
          "transactionHash": "0xed270e0016df0fe322e1b97cf9acb8caf861502783beb9270f874761e2c684a6",
          "transactionIndex": "0x5",
          "logIndex": "0x14",
          "removed": false
        },
        {
          "address": "0x75faf114eafb1bdbe2f0316df893fd58ce46aa4d",
          "topics": [
            "0xddf252ad1be2c89b69c2b068fc378daa952ba7f163c4a11628f55a4df523b3ef",
            "0x000000000000000000000000dce0f65638d3860065e68393b25b5f4917773ef1",
            "0x0000000000000000000000000178157cdfe53ce7ee4c937928e6746ab68952b8"
          ],
          "data": "0x00000000000000000000000000000000000000000000000000000000000f4240",
          "blockHash": "0x92f2593242e49973eac3f5d630427d9b5d3c9851011b20e699e108c434d2c62b",
          "blockNumber": "0xa2bde0b",
          "transactionHash": "0xed270e0016df0fe322e1b97cf9acb8caf861502783beb9270f874761e2c684a6",
          "transactionIndex": "0x5",
          "logIndex": "0x15",
          "removed": false
        },
        {
          "address": "0x4337084d9e255ff0702461cf8895ce9e3b5ff108",
          "topics": [
            "0x49628fd1471006c1482da88028e9ce4dbb080b815c9b0344d39e5a8e6ec1419f",
            "0xc814090cd93c14b79a32e4c2e892fa4d77111ee9a6d0770c2a5deb36f1ff9568",
            "0x000000000000000000000000dce0f65638d3860065e68393b25b5f4917773ef1",
            "0x0000000000000000000000000000000000000000000000000000000000000000"
          ],
          "data": "0x000000000000000000000000000000000000000000000000000000000000000800000000000000000000000000000000000000000000000000000000000000010000000000000000000000000000000000000000000000000000eb772dadcb000000000000000000000000000000000000000000000000000000000000039761",
          "blockHash": "0x92f2593242e49973eac3f5d630427d9b5d3c9851011b20e699e108c434d2c62b",
          "blockNumber": "0xa2bde0b",
          "transactionHash": "0xed270e0016df0fe322e1b97cf9acb8caf861502783beb9270f874761e2c684a6",
          "transactionIndex": "0x5",
          "logIndex": "0x16",
          "removed": false
        }
      ],
      "logsBloom": "0x00000000000000000002000000000000000000000000000000000000000000000008000000000000000000010000000000000000000000000000020000000000800000000000000000000008000002000000000000000000000000000000200000000000020000000000020000000800000000008000000000000010000240000000001000000000000000000000000000000000000000000100000000000000000000000000000000400000000000000000080000000000000002000000000000000002000000000001000000000000000000000000200000000010000020000040000000000000000000000001000800000000000000000100000000000004",
      "type": "0x2",
      "transactionHash": "0xed270e0016df0fe322e1b97cf9acb8caf861502783beb9270f874761e2c684a6",
      "transactionIndex": "0x5",
      "blockHash": "0x92f2593242e49973eac3f5d630427d9b5d3c9851011b20e699e108c434d2c62b",
      "blockNumber": "0xa2bde0b",
      "gasUsed": "0x1e277",
      "effectiveGasPrice": "0x5f5e100",
      "from": "0xf52205f70531e62f7199d3f3835fddcd86791294",
      "to": "0x4337084d9e255ff0702461cf8895ce9e3b5ff108",
      "contractAddress": null,
      "gasUsedForL1": "0x1",
      "l1BlockNumber": "0x84c5e2",
      "timeboosted": false
    }
  ],
  "libraries": [],
  "pending": [],
  "returns": {},
  "timestamp": 1751763938,
  "chain": 421614,
  "commit": "b6c3fc3"
}