{
  "transactions": [
    {
      "hash": "0xd5423c6807145c15741afa75e6b5c1b3b35e40107c4ca14318e60164963d5626",
      "transactionType": "CALL",
      "contractName": "EntryPoint",
      "contractAddress": "0x4337084d9e255ff0702461cf8895ce9e3b5ff108",
      "function": "handleOps((address,uint256,bytes,bytes,bytes32,uint256,bytes32,bytes,bytes)[],address)",
      "arguments": [
        "[(0xdCe0f65638D3860065E68393b25b5f4917773ef1, 3, 0x, 0xb61d27f600000000000000000000000075faf114eafb1bdbe2f0316df893fd58ce46aa4d000000000000000000000000000000000000000000000000000000000000000000000000000000000000000000000000000000000000000000000000000000600000000000000000000000000000000000000000000000000000000000000044a9059cbb0000000000000000000000000178157cdfe53ce7ee4c937928e6746ab68952b80000000000000000000000000000000000000000000000000de0b6b3a764000000000000000000000000000000000000000000000000000000000000, 0x000000000000000000000000000249f0000000000000000000000000000186a0, 150000, 0x0000000000000000000000003b9aca0000000000000000000000000077359400, 0x, 0x21d9a90333b0d8648a46b0f0f78fe85081e5ad75fe82cb58665b4d0d136902d55c59656c38818a499a25944d6849e9f509d16c69b4c8919b03b8170d4b28a6cb1b)]",
        "0xB69F973d1E94B1aeA5Bf8c6fEFF13876C0155605"
      ],
      "transaction": {
        "from": "0xf52205f70531e62f7199d3f3835fddcd86791294",
        "to": "0x4337084d9e255ff0702461cf8895ce9e3b5ff108",
        "gas": "0x3983c",
        "value": "0x0",
        "input": "0x765e827f0000000000000000000000000000000000000000000000000000000000000040000000000000000000000000b69f973d1e94b1aea5bf8c6feff13876c015560500000000000000000000000000000000000000000000000000000000000000010000000000000000000000000000000000000000000000000000000000000020000000000000000000000000dce0f65638d3860065e68393b25b5f4917773ef1000000000000000000000000000000000000000000000000000000000000000300000000000000000000000000000000000000000000000000000000000001200000000000000000000000000000000000000000000000000000000000000140000000000000000000000000000249f0000000000000000000000000000186a000000000000000000000000000000000000000000000000000000000000249f00000000000000000000000003b9aca000000000000000000000000007735940000000000000000000000000000000000000000000000000000000000000002600000000000000000000000000000000000000000000000000000000000000280000000000000000000000000000000000000000000000000000000000000000000000000000000000000000000000000000000000000000000000000000000e4b61d27f600000000000000000000000075faf114eafb1bdbe2f0316df893fd58ce46aa4d000000000000000000000000000000000000000000000000000000000000000000000000000000000000000000000000000000000000000000000000000000600000000000000000000000000000000000000000000000000000000000000044a9059cbb0000000000000000000000000178157cdfe53ce7ee4c937928e6746ab68952b80000000000000000000000000000000000000000000000000de0b6b3a764000000000000000000000000000000000000000000000000000000000000000000000000000000000000000000000000000000000000000000000000000000000000000000000000000000000000000000000000000000000000000000000000000000000000000000000000000000000000000000000000004121d9a90333b0d8648a46b0f0f78fe85081e5ad75fe82cb58665b4d0d136902d55c59656c38818a499a25944d6849e9f509d16c69b4c8919b03b8170d4b28a6cb1b00000000000000000000000000000000000000000000000000000000000000",
        "nonce": "0x13",
        "chainId": "0x66eee"
      },
      "additionalContracts": [],
      "isFixedGasLimit": false
    }
  ],
  "receipts": [
    {
      "status": "0x1",
      "cumulativeGasUsed": "0x40613",
      "logs": [
        {
          "address": "0x4337084d9e255ff0702461cf8895ce9e3b5ff108",
          "topics": [
            "0x2da466a7b24304f47e87fa2e1e5a81b9831ce54fec19055ce277ca2f39ba42c4",
            "0x000000000000000000000000dce0f65638d3860065e68393b25b5f4917773ef1"
          ],
          "data": "0x0000000000000000000000000000000000000000000000000002d79883d20000",
          "blockHash": "0xd55750e06e0e710861186bafe4c789bb76a7ee49d958fbb4613bad1c7f37d390",
          "blockNumber": "0xa2bc0e7",
          "transactionHash": "0xd5423c6807145c15741afa75e6b5c1b3b35e40107c4ca14318e60164963d5626",
          "transactionIndex": "0x3",
          "logIndex": "0x4",
          "removed": false
        },
        {
          "address": "0x4337084d9e255ff0702461cf8895ce9e3b5ff108",
          "topics": [
            "0xbb47ee3e183a558b1a2ff0874b079f3fc5478b7454eacf2bfc5af2ff5878f972"
          ],
          "data": "0x",
          "blockHash": "0xd55750e06e0e710861186bafe4c789bb76a7ee49d958fbb4613bad1c7f37d390",
          "blockNumber": "0xa2bc0e7",
          "transactionHash": "0xd5423c6807145c15741afa75e6b5c1b3b35e40107c4ca14318e60164963d5626",
          "transactionIndex": "0x3",
          "logIndex": "0x5",
          "removed": false
        },
        {
          "address": "0x4337084d9e255ff0702461cf8895ce9e3b5ff108",
          "topics": [
            "0x1c4fada7374c0a9ee8841fc38afe82932dc0f8e69012e927f061a8bae611a201",
            "0x0a0959bc231c6ab3a2511fa031443d76e5ef9bfb8fb42dd13abb81ae22573d0d",
            "0x000000000000000000000000dce0f65638d3860065e68393b25b5f4917773ef1"
          ],
          "data": "0x0000000000000000000000000000000000000000000000000000000000000003000000000000000000000000000000000000000000000000000000000000004000000000000000000000000000000000000000000000000000000000000000e438fe21500000000000000000000000000000000000000000000000000000000000000020000000000000000000000000000000000000000000000000000000000000008408c379a00000000000000000000000000000000000000000000000000000000000000020000000000000000000000000000000000000000000000000000000000000002645524332303a207472616e7366657220616d6f756e7420657863656564732062616c616e636500000000000000000000000000000000000000000000000000000000000000000000000000000000000000000000000000000000000000000000000000000000000000000000000000000000000000000000",
          "blockHash": "0xd55750e06e0e710861186bafe4c789bb76a7ee49d958fbb4613bad1c7f37d390",
          "blockNumber": "0xa2bc0e7",
          "transactionHash": "0xd5423c6807145c15741afa75e6b5c1b3b35e40107c4ca14318e60164963d5626",
          "transactionIndex": "0x3",
          "logIndex": "0x6",
          "removed": false
        },
        {
          "address": "0x4337084d9e255ff0702461cf8895ce9e3b5ff108",
          "topics": [
            "0x49628fd1471006c1482da88028e9ce4dbb080b815c9b0344d39e5a8e6ec1419f",
            "0x0a0959bc231c6ab3a2511fa031443d76e5ef9bfb8fb42dd13abb81ae22573d0d",
            "0x000000000000000000000000dce0f65638d3860065e68393b25b5f4917773ef1",
            "0x0000000000000000000000000000000000000000000000000000000000000000"
          ],
          "data": "0x000000000000000000000000000000000000000000000000000000000000000300000000000000000000000000000000000000000000000000000000000000000000000000000000000000000000000000000000000000000000d8e15aa4f0000000000000000000000000000000000000000000000000000000000000034ed0",
          "blockHash": "0xd55750e06e0e710861186bafe4c789bb76a7ee49d958fbb4613bad1c7f37d390",
          "blockNumber": "0xa2bc0e7",
          "transactionHash": "0xd5423c6807145c15741afa75e6b5c1b3b35e40107c4ca14318e60164963d5626",
          "transactionIndex": "0x3",
          "logIndex": "0x7",
          "removed": false
        }
      ],
      "logsBloom": "0x000000000000000000000000000000000000000000000000000000000000000000080000000000000000000100000000000000000000000000000200008000000000000000000000000000000000020000000000000000000000000000402000000000000a0000000000000000000800000000008000000000000000000200000000001000000000000000000000000000000000000000000100000000000000000100000002000000400000000000000000000000000000000002000000000000000000000000000001000000000000000000000000200000000010000020000040000001000000000000000000000000000000000000000000000000000000",
      "type": "0x2",
      "transactionHash": "0xd5423c6807145c15741afa75e6b5c1b3b35e40107c4ca14318e60164963d5626",
      "transactionIndex": "0x3",
      "blockHash": "0xd55750e06e0e710861186bafe4c789bb76a7ee49d958fbb4613bad1c7f37d390",
      "blockNumber": "0xa2bc0e7",
      "gasUsed": "0x190cc",
      "effectiveGasPrice": "0x5f5e100",
      "from": "0xf52205f70531e62f7199d3f3835fddcd86791294",
      "to": "0x4337084d9e255ff0702461cf8895ce9e3b5ff108",
      "contractAddress": null,
      "gasUsedForL1": "0x3",
      "l1BlockNumber": "0x84c541",
      "timeboosted": false
    }
  ],
  "libraries": [],
  "pending": [],
  "returns": {},
  "timestamp": 1751762009,
  "chain": 421614,
  "commit": "b6c3fc3"
}