{
  "transactions": [
    {
      "hash": "0x5aef4f2d4c767c168954355646d48a52e3887bec155a34a248ed280a266fed29",
      "transactionType": "CALL",
      "contractName": "EntryPoint",
      "contractAddress": "0x4337084d9e255ff0702461cf8895ce9e3b5ff108",
      "function": "handleOps((address,uint256,bytes,bytes,bytes32,uint256,bytes32,bytes,bytes)[],address)",
      "arguments": [
        "[(0xdCe0f65638D3860065E68393b25b5f4917773ef1, 7, 0x, 0xb61d27f600000000000000000000000075faf114eafb1bdbe2f0316df893fd58ce46aa4d000000000000000000000000000000000000000000000000000000000000000000000000000000000000000000000000000000000000000000000000000000600000000000000000000000000000000000000000000000000000000000000044a9059cbb0000000000000000000000000178157cdfe53ce7ee4c937928e6746ab68952b80000000000000000000000000000000000000000000000000de0b6b3a764000000000000000000000000000000000000000000000000000000000000, 0x000000000000000000000000000249f0000000000000000000000000000186a0, 150000, 0x0000000000000000000000003b9aca0000000000000000000000000077359400, 0x, 0xb2df0df4f45c505b60ac548324560ce13dd727189b067d42e82dc377fc5b2f09754207567e5b02b14730d254da65b6211b70f74d10f79f086fce7b490b61e8e41c)]",
        "0xf52205F70531e62f7199D3f3835FDdCd86791294"
      ],
      "transaction": {
        "from": "0xf52205f70531e62f7199d3f3835fddcd86791294",
        "to": "0x4337084d9e255ff0702461cf8895ce9e3b5ff108",
        "gas": "0x39c4e",
        "value": "0x0",
        "input": "0x765e827f0000000000000000000000000000000000000000000000000000000000000040000000000000000000000000f52205f70531e62f7199d3f3835fddcd8679129400000000000000000000000000000000000000000000000000000000000000010000000000000000000000000000000000000000000000000000000000000020000000000000000000000000dce0f65638d3860065e68393b25b5f4917773ef1000000000000000000000000000000000000000000000000000000000000000700000000000000000000000000000000000000000000000000000000000001200000000000000000000000000000000000000000000000000000000000000140000000000000000000000000000249f0000000000000000000000000000186a000000000000000000000000000000000000000000000000000000000000249f00000000000000000000000003b9aca000000000000000000000000007735940000000000000000000000000000000000000000000000000000000000000002600000000000000000000000000000000000000000000000000000000000000280000000000000000000000000000000000000000000000000000000000000000000000000000000000000000000000000000000000000000000000000000000e4b61d27f600000000000000000000000075faf114eafb1bdbe2f0316df893fd58ce46aa4d000000000000000000000000000000000000000000000000000000000000000000000000000000000000000000000000000000000000000000000000000000600000000000000000000000000000000000000000000000000000000000000044a9059cbb0000000000000000000000000178157cdfe53ce7ee4c937928e6746ab68952b80000000000000000000000000000000000000000000000000de0b6b3a7640000000000000000000000000000000000000000000000000000000000000000000000000000000000000000000000000000000000000000000000000000000000000000000000000000000000000000000000000000000000000000000000000000000000000000000000000000000000000000000000000041b2df0df4f45c505b60ac548324560ce13dd727189b067d42e82dc377fc5b2f09754207567e5b02b14730d254da65b6211b70f74d10f79f086fce7b490b61e8e41c00000000000000000000000000000000000000000000000000000000000000",
        "nonce": "0x19",
        "chainId": "0x66eee"
      },
      "additionalContracts": [],
      "isFixedGasLimit": false
    }
  ],
  "receipts": [
    {
      "status": "0x1",
      "cumulativeGasUsed": "0x731d8",
      "logs": [
        {
          "address": "0x4337084d9e255ff0702461cf8895ce9e3b5ff108",
          "topics": [
            "0x2da466a7b24304f47e87fa2e1e5a81b9831ce54fec19055ce277ca2f39ba42c4",
            "0x000000000000000000000000dce0f65638d3860065e68393b25b5f4917773ef1"
          ],
          "data": "0x0000000000000000000000000000000000000000000000000002d79883d20000",
          "blockHash": "0xaf3fa705cb3a18ebcd433ec0aadf33e18c9939dee1804cecf0faa187592e9b38",
          "blockNumber": "0xa2bcd16",
          "transactionHash": "0x5aef4f2d4c767c168954355646d48a52e3887bec155a34a248ed280a266fed29",
          "transactionIndex": "0x5",
          "logIndex": "0xa",
          "removed": false
        },
        {
          "address": "0x4337084d9e255ff0702461cf8895ce9e3b5ff108",
          "topics": [
            "0xbb47ee3e183a558b1a2ff0874b079f3fc5478b7454eacf2bfc5af2ff5878f972"
          ],
          "data": "0x",
          "blockHash": "0xaf3fa705cb3a18ebcd433ec0aadf33e18c9939dee1804cecf0faa187592e9b38",
          "blockNumber": "0xa2bcd16",
          "transactionHash": "0x5aef4f2d4c767c168954355646d48a52e3887bec155a34a248ed280a266fed29",
          "transactionIndex": "0x5",
          "logIndex": "0xb",
          "removed": false
        },
        {
          "address": "0x4337084d9e255ff0702461cf8895ce9e3b5ff108",
          "topics": [
            "0x1c4fada7374c0a9ee8841fc38afe82932dc0f8e69012e927f061a8bae611a201",
            "0x18002d89ad1c89a8b9cd8c557732c066910de81e39eafbad8b33b824a40ce06e",
            "0x000000000000000000000000dce0f65638d3860065e68393b25b5f4917773ef1"
          ],
          "data": "0x0000000000000000000000000000000000000000000000000000000000000007000000000000000000000000000000000000000000000000000000000000004000000000000000000000000000000000000000000000000000000000000000e438fe21500000000000000000000000000000000000000000000000000000000000000020000000000000000000000000000000000000000000000000000000000000008408c379a00000000000000000000000000000000000000000000000000000000000000020000000000000000000000000000000000000000000000000000000000000002645524332303a207472616e7366657220616d6f756e7420657863656564732062616c616e636500000000000000000000000000000000000000000000000000000000000000000000000000000000000000000000000000000000000000000000000000000000000000000000000000000000000000000000",
          "blockHash": "0xaf3fa705cb3a18ebcd433ec0aadf33e18c9939dee1804cecf0faa187592e9b38",
          "blockNumber": "0xa2bcd16",
          "transactionHash": "0x5aef4f2d4c767c168954355646d48a52e3887bec155a34a248ed280a266fed29",
          "transactionIndex": "0x5",
          "logIndex": "0xc",
          "removed": false
        },
        {
          "address": "0x4337084d9e255ff0702461cf8895ce9e3b5ff108",
          "topics": [
            "0x49628fd1471006c1482da88028e9ce4dbb080b815c9b0344d39e5a8e6ec1419f",
            "0x18002d89ad1c89a8b9cd8c557732c066910de81e39eafbad8b33b824a40ce06e",
            "0x000000000000000000000000dce0f65638d3860065e68393b25b5f4917773ef1",
            "0x0000000000000000000000000000000000000000000000000000000000000000"
          ],
          "data": "0x000000000000000000000000000000000000000000000000000000000000000700000000000000000000000000000000000000000000000000000000000000000000000000000000000000000000000000000000000000000000d8e15aa4f0000000000000000000000000000000000000000000000000000000000000034ed0",
          "blockHash": "0xaf3fa705cb3a18ebcd433ec0aadf33e18c9939dee1804cecf0faa187592e9b38",
          "blockNumber": "0xa2bcd16",
          "transactionHash": "0x5aef4f2d4c767c168954355646d48a52e3887bec155a34a248ed280a266fed29",
          "transactionIndex": "0x5",
          "logIndex": "0xd",
          "removed": false
        }
      ],
      "logsBloom": "0x000000000000000000000000000000000000000000000000000000000000000000080000000000000000000100000000000000000000008000000200000000000000000000000000000000000000020000000000000000000000000000402000000000000a0080000000000000000800000000008000000000000000000200000000001000000000000000000000000000000000000100000100000000000000000000000000000000400000000000000000000000000000000002000000000000000000000000000001000000000000000000000000200000000010000020000040000001000000000000000000000000000000000000000000000000000000",
      "type": "0x2",
      "transactionHash": "0x5aef4f2d4c767c168954355646d48a52e3887bec155a34a248ed280a266fed29",
      "transactionIndex": "0x5",
      "blockHash": "0xaf3fa705cb3a18ebcd433ec0aadf33e18c9939dee1804cecf0faa187592e9b38",
      "blockNumber": "0xa2bcd16",
      "gasUsed": "0x18707",
      "effectiveGasPrice": "0x5f5e100",
      "from": "0xf52205f70531e62f7199d3f3835fddcd86791294",
      "to": "0x4337084d9e255ff0702461cf8895ce9e3b5ff108",
      "contractAddress": null,
      "gasUsedForL1": "0x2",
      "l1BlockNumber": "0x84c584",
      "timeboosted": false
    }
  ],
  "libraries": [],
  "pending": [],
  "returns": {},
  "timestamp": 1751762815,
  "chain": 421614,
  "commit": "b6c3fc3"
}